{
  "_format": "hh-sol-artifact-1",
  "contractName": "Supplychain",
  "sourceName": "contracts/Supplychain.sol",
  "abi": [
    {
      "anonymous": false,
      "inputs": [
        {
          "indexed": false,
          "internalType": "address",
          "name": "_address",
          "type": "address"
        }
      ],
      "name": "AddCustomer",
      "type": "event"
    },
    {
      "anonymous": false,
      "inputs": [
        {
          "indexed": false,
          "internalType": "address",
          "name": "_address",
          "type": "address"
        }
      ],
      "name": "AddDistributor",
      "type": "event"
    },
    {
      "anonymous": false,
      "inputs": [
        {
          "indexed": false,
          "internalType": "address",
          "name": "_address",
          "type": "address"
        }
      ],
      "name": "AddFactory",
      "type": "event"
    },
    {
      "anonymous": false,
      "inputs": [
        {
          "indexed": false,
          "internalType": "address",
          "name": "_address",
          "type": "address"
        }
      ],
      "name": "AddISO",
      "type": "event"
    },
    {
      "anonymous": false,
      "inputs": [
        {
          "indexed": false,
          "internalType": "address",
          "name": "_address",
          "type": "address"
        }
      ],
      "name": "AddRetailer",
      "type": "event"
    },
    {
      "anonymous": false,
      "inputs": [
        {
          "indexed": false,
          "internalType": "address",
          "name": "_address",
          "type": "address"
        }
      ],
      "name": "AddWarehouse",
      "type": "event"
    },
    {
      "anonymous": false,
      "inputs": [
        {
          "indexed": true,
          "internalType": "address",
          "name": "previousOwner",
          "type": "address"
        },
        {
          "indexed": true,
          "internalType": "address",
          "name": "newOwner",
          "type": "address"
        }
      ],
      "name": "OwnershipTransferred",
      "type": "event"
    },
    {
      "anonymous": false,
      "inputs": [
        {
          "indexed": false,
          "internalType": "address",
          "name": "_address",
          "type": "address"
        }
      ],
      "name": "RemoveCustomer",
      "type": "event"
    },
    {
      "anonymous": false,
      "inputs": [
        {
          "indexed": false,
          "internalType": "address",
          "name": "_address",
          "type": "address"
        }
      ],
      "name": "RemoveDistributor",
      "type": "event"
    },
    {
      "anonymous": false,
      "inputs": [
        {
          "indexed": false,
          "internalType": "address",
          "name": "_address",
          "type": "address"
        }
      ],
      "name": "RemoveFactory",
      "type": "event"
    },
    {
      "anonymous": false,
      "inputs": [
        {
          "indexed": false,
          "internalType": "address",
          "name": "_address",
          "type": "address"
        }
      ],
      "name": "RemoveISO",
      "type": "event"
    },
    {
      "anonymous": false,
      "inputs": [
        {
          "indexed": false,
          "internalType": "address",
          "name": "_address",
          "type": "address"
        }
      ],
      "name": "RemoveRetailer",
      "type": "event"
    },
    {
      "anonymous": false,
      "inputs": [
        {
          "indexed": false,
          "internalType": "address",
          "name": "_address",
          "type": "address"
        }
      ],
      "name": "RemoveWarehouse",
      "type": "event"
    },
    {
      "inputs": [
        {
          "internalType": "address",
          "name": "_address",
          "type": "address"
        }
      ],
      "name": "addCustomer",
      "outputs": [],
      "stateMutability": "nonpayable",
      "type": "function"
    },
    {
      "inputs": [
        {
          "internalType": "address",
          "name": "_address",
          "type": "address"
        }
      ],
      "name": "addDistributor",
      "outputs": [],
      "stateMutability": "nonpayable",
      "type": "function"
    },
    {
      "inputs": [
        {
          "internalType": "address",
          "name": "_address",
          "type": "address"
        }
      ],
      "name": "addFactory",
      "outputs": [],
      "stateMutability": "nonpayable",
      "type": "function"
    },
    {
      "inputs": [
        {
          "internalType": "address",
          "name": "_address",
          "type": "address"
        }
      ],
      "name": "addISO",
      "outputs": [],
      "stateMutability": "nonpayable",
      "type": "function"
    },
    {
      "inputs": [
        {
          "internalType": "address",
          "name": "_address",
          "type": "address"
        }
      ],
      "name": "addRetailer",
      "outputs": [],
      "stateMutability": "nonpayable",
      "type": "function"
    },
    {
      "inputs": [
        {
          "internalType": "address",
          "name": "_address",
          "type": "address"
        }
      ],
      "name": "addWarehouse",
      "outputs": [],
      "stateMutability": "nonpayable",
      "type": "function"
    },
    {
      "inputs": [],
      "name": "getCustomer",
      "outputs": [
        {
          "internalType": "address[]",
          "name": "",
          "type": "address[]"
        }
      ],
      "stateMutability": "view",
      "type": "function"
    },
    {
      "inputs": [],
      "name": "getDistributor",
      "outputs": [
        {
          "internalType": "address[]",
          "name": "",
          "type": "address[]"
        }
      ],
      "stateMutability": "view",
      "type": "function"
    },
    {
      "inputs": [],
      "name": "getFactory",
      "outputs": [
        {
          "internalType": "address[]",
          "name": "",
          "type": "address[]"
        }
      ],
      "stateMutability": "view",
      "type": "function"
    },
    {
      "inputs": [],
      "name": "getISO",
      "outputs": [
        {
          "internalType": "address[]",
          "name": "",
          "type": "address[]"
        }
      ],
      "stateMutability": "view",
      "type": "function"
    },
    {
      "inputs": [],
      "name": "getRetailer",
      "outputs": [
        {
          "internalType": "address[]",
          "name": "",
          "type": "address[]"
        }
      ],
      "stateMutability": "view",
      "type": "function"
    },
    {
      "inputs": [],
      "name": "getWarehouse",
      "outputs": [
        {
          "internalType": "address[]",
          "name": "",
          "type": "address[]"
        }
      ],
      "stateMutability": "view",
      "type": "function"
    },
    {
      "inputs": [
        {
          "internalType": "address",
          "name": "_address",
          "type": "address"
        }
      ],
      "name": "isCustomer",
      "outputs": [
        {
          "internalType": "bool",
          "name": "",
          "type": "bool"
        }
      ],
      "stateMutability": "view",
      "type": "function"
    },
    {
      "inputs": [
        {
          "internalType": "address",
          "name": "_address",
          "type": "address"
        }
      ],
      "name": "isDistributor",
      "outputs": [
        {
          "internalType": "bool",
          "name": "",
          "type": "bool"
        }
      ],
      "stateMutability": "view",
      "type": "function"
    },
    {
      "inputs": [
        {
          "internalType": "address",
          "name": "_address",
          "type": "address"
        }
      ],
      "name": "isFactory",
      "outputs": [
        {
          "internalType": "bool",
          "name": "",
          "type": "bool"
        }
      ],
      "stateMutability": "view",
      "type": "function"
    },
    {
      "inputs": [
        {
          "internalType": "address",
          "name": "_address",
          "type": "address"
        }
      ],
      "name": "isISO",
      "outputs": [
        {
          "internalType": "bool",
          "name": "",
          "type": "bool"
        }
      ],
      "stateMutability": "view",
      "type": "function"
    },
    {
      "inputs": [
        {
          "internalType": "address",
          "name": "_address",
          "type": "address"
        }
      ],
      "name": "isRetailer",
      "outputs": [
        {
          "internalType": "bool",
          "name": "",
          "type": "bool"
        }
      ],
      "stateMutability": "view",
      "type": "function"
    },
    {
      "inputs": [
        {
          "internalType": "address",
          "name": "_address",
          "type": "address"
        }
      ],
      "name": "isWarehouse",
      "outputs": [
        {
          "internalType": "bool",
          "name": "",
          "type": "bool"
        }
      ],
      "stateMutability": "view",
      "type": "function"
    },
    {
      "inputs": [],
      "name": "itemCounter",
      "outputs": [
        {
          "internalType": "uint256",
          "name": "_value",
          "type": "uint256"
        }
      ],
      "stateMutability": "view",
      "type": "function"
    },
    {
      "inputs": [],
      "name": "owner",
      "outputs": [
        {
          "internalType": "address",
          "name": "",
          "type": "address"
        }
      ],
      "stateMutability": "view",
      "type": "function"
    },
    {
      "inputs": [],
      "name": "productCode",
      "outputs": [
        {
          "internalType": "uint256",
          "name": "_value",
          "type": "uint256"
        }
      ],
      "stateMutability": "view",
      "type": "function"
    },
    {
      "inputs": [
        {
          "internalType": "address",
          "name": "_address",
          "type": "address"
        }
      ],
      "name": "removeCustomer",
      "outputs": [],
      "stateMutability": "nonpayable",
      "type": "function"
    },
    {
      "inputs": [
        {
          "internalType": "address",
          "name": "_address",
          "type": "address"
        }
      ],
      "name": "removeCustomerSelf",
      "outputs": [],
      "stateMutability": "nonpayable",
      "type": "function"
    },
    {
      "inputs": [
        {
          "internalType": "address",
          "name": "_address",
          "type": "address"
        }
      ],
      "name": "removeDistributor",
      "outputs": [],
      "stateMutability": "nonpayable",
      "type": "function"
    },
    {
      "inputs": [
        {
          "internalType": "address",
          "name": "_address",
          "type": "address"
        }
      ],
      "name": "removeDistributorSelf",
      "outputs": [],
      "stateMutability": "nonpayable",
      "type": "function"
    },
    {
      "inputs": [
        {
          "internalType": "address",
          "name": "_address",
          "type": "address"
        }
      ],
      "name": "removeFactory",
      "outputs": [],
      "stateMutability": "nonpayable",
      "type": "function"
    },
    {
      "inputs": [
        {
          "internalType": "address",
          "name": "_address",
          "type": "address"
        }
      ],
      "name": "removeFactorySelf",
      "outputs": [],
      "stateMutability": "nonpayable",
      "type": "function"
    },
    {
      "inputs": [
        {
          "internalType": "address",
          "name": "_address",
          "type": "address"
        }
      ],
      "name": "removeISO",
      "outputs": [],
      "stateMutability": "nonpayable",
      "type": "function"
    },
    {
      "inputs": [
        {
          "internalType": "address",
          "name": "_address",
          "type": "address"
        }
      ],
      "name": "removeISOSelf",
      "outputs": [],
      "stateMutability": "nonpayable",
      "type": "function"
    },
    {
      "inputs": [
        {
          "internalType": "address",
          "name": "_address",
          "type": "address"
        }
      ],
      "name": "removeRetailer",
      "outputs": [],
      "stateMutability": "nonpayable",
      "type": "function"
    },
    {
      "inputs": [
        {
          "internalType": "address",
          "name": "_address",
          "type": "address"
        }
      ],
      "name": "removeRetailerSelf",
      "outputs": [],
      "stateMutability": "nonpayable",
      "type": "function"
    },
    {
      "inputs": [
        {
          "internalType": "address",
          "name": "_address",
          "type": "address"
        }
      ],
      "name": "removeSelfWarehouse",
      "outputs": [],
      "stateMutability": "nonpayable",
      "type": "function"
    },
    {
      "inputs": [
        {
          "internalType": "address",
          "name": "_address",
          "type": "address"
        }
      ],
      "name": "removeWarehouse",
      "outputs": [],
      "stateMutability": "nonpayable",
      "type": "function"
    },
    {
      "inputs": [],
      "name": "renounceOwnership",
      "outputs": [],
      "stateMutability": "nonpayable",
      "type": "function"
    },
    {
      "inputs": [
        {
          "internalType": "address",
          "name": "newOwner",
          "type": "address"
        }
      ],
      "name": "transferOwnership",
      "outputs": [],
      "stateMutability": "nonpayable",
      "type": "function"
    }
  ],
  "bytecode": "0x60806040523480156200001157600080fd5b5062000032620000266200009e60201b60201c565b620000a660201b60201c565b62000043336200016a60201b60201c565b62000054336200025060201b60201c565b62000065336200033660201b60201c565b62000076336200041c60201b60201c565b62000087336200050260201b60201c565b6200009833620005e860201b60201c565b62000a82565b600033905090565b60008060009054906101000a900473ffffffffffffffffffffffffffffffffffffffff169050816000806101000a81548173ffffffffffffffffffffffffffffffffffffffff021916908373ffffffffffffffffffffffffffffffffffffffff1602179055508173ffffffffffffffffffffffffffffffffffffffff168173ffffffffffffffffffffffffffffffffffffffff167f8be0079c531659141344cd1fd0a4f28419497f9722a3daafe3b4186f6b6457e060405160405180910390a35050565b6200017a6200009e60201b60201c565b73ffffffffffffffffffffffffffffffffffffffff16620001a0620006ce60201b60201c565b73ffffffffffffffffffffffffffffffffffffffff1614620001f9576040517f08c379a0000000000000000000000000000000000000000000000000000000008152600401620001f090620008d6565b60405180910390fd5b62000214816001620006f760201b620017171790919060201c565b7f364ee90eb63717b99192fdb951c7b1aa91a45bca11ac73ab40cfad762631fbce816040516200024591906200093d565b60405180910390a150565b620002606200009e60201b60201c565b73ffffffffffffffffffffffffffffffffffffffff1662000286620006ce60201b60201c565b73ffffffffffffffffffffffffffffffffffffffff1614620002df576040517f08c379a0000000000000000000000000000000000000000000000000000000008152600401620002d690620008d6565b60405180910390fd5b620002fa816002620006f760201b620017171790919060201c565b7f5a8fb443d09cf1426e80f80dd509757d71d4687674ab4adad906c5e2b6e1e62c816040516200032b91906200093d565b60405180910390a150565b620003466200009e60201b60201c565b73ffffffffffffffffffffffffffffffffffffffff166200036c620006ce60201b60201c565b73ffffffffffffffffffffffffffffffffffffffff1614620003c5576040517f08c379a0000000000000000000000000000000000000000000000000000000008152600401620003bc90620008d6565b60405180910390fd5b620003e0816003620006f760201b620017171790919060201c565b7feaf4826d3cad06f851d4fdd9cdf878a0c6d82ce9a07f0c1955beac07c1e23692816040516200041191906200093d565b60405180910390a150565b6200042c6200009e60201b60201c565b73ffffffffffffffffffffffffffffffffffffffff1662000452620006ce60201b60201c565b73ffffffffffffffffffffffffffffffffffffffff1614620004ab576040517f08c379a0000000000000000000000000000000000000000000000000000000008152600401620004a290620008d6565b60405180910390fd5b620004c6816004620006f760201b620017171790919060201c565b7f3afd547f7eb357741de51229846ae795cb06449e4b4032eb34a7cc0a751e25c181604051620004f791906200093d565b60405180910390a150565b620005126200009e60201b60201c565b73ffffffffffffffffffffffffffffffffffffffff1662000538620006ce60201b60201c565b73ffffffffffffffffffffffffffffffffffffffff161462000591576040517f08c379a00000000000000000000000000000000000000000000000000000000081526004016200058890620008d6565b60405180910390fd5b620005ac816005620006f760201b620017171790919060201c565b7f0eea60f9e1851b51feed56c339be177ea715591923622a0effe46dbb8885efa681604051620005dd91906200093d565b60405180910390a150565b620005f86200009e60201b60201c565b73ffffffffffffffffffffffffffffffffffffffff166200061e620006ce60201b60201c565b73ffffffffffffffffffffffffffffffffffffffff161462000677576040517f08c379a00000000000000000000000000000000000000000000000000000000081526004016200066e90620008d6565b60405180910390fd5b62000692816006620006f760201b620017171790919060201c565b7f23b2415a50efd127e694ba174e400d457ad65c58752e171b6d17f3f5daa26fdb81604051620006c391906200093d565b60405180910390a150565b60008060009054906101000a900473ffffffffffffffffffffffffffffffffffffffff16905090565b620007098282620007b560201b60201c565b156200074c576040517f08c379a00000000000000000000000000000000000000000000000000000000081526004016200074390620009aa565b60405180910390fd5b81600001819080600181540180825580915050600190039060005260206000200160009091909190916101000a81548173ffffffffffffffffffffffffffffffffffffffff021916908373ffffffffffffffffffffffffffffffffffffffff1602179055505050565b6000808360000180549050905060005b8181101562000868578373ffffffffffffffffffffffffffffffffffffffff16856000018281548110620007fe57620007fd620009cc565b5b9060005260206000200160009054906101000a900473ffffffffffffffffffffffffffffffffffffffff1673ffffffffffffffffffffffffffffffffffffffff16141562000852576001925050506200086f565b80806200085f9062000a34565b915050620007c5565b5060009150505b92915050565b600082825260208201905092915050565b7f4f776e61626c653a2063616c6c6572206973206e6f7420746865206f776e6572600082015250565b6000620008be60208362000875565b9150620008cb8262000886565b602082019050919050565b60006020820190508181036000830152620008f181620008af565b9050919050565b600073ffffffffffffffffffffffffffffffffffffffff82169050919050565b60006200092582620008f8565b9050919050565b620009378162000918565b82525050565b60006020820190506200095460008301846200092c565b92915050565b7f524f4c455f414c52454144595f45584953545300000000000000000000000000600082015250565b60006200099260138362000875565b91506200099f826200095a565b602082019050919050565b60006020820190508181036000830152620009c58162000983565b9050919050565b7f4e487b7100000000000000000000000000000000000000000000000000000000600052603260045260246000fd5b7f4e487b7100000000000000000000000000000000000000000000000000000000600052601160045260246000fd5b6000819050919050565b600062000a418262000a2a565b91507fffffffffffffffffffffffffffffffffffffffffffffffffffffffffffffffff82141562000a775762000a76620009fb565b5b600182019050919050565b6120b48062000a926000396000f3fe608060405234801561001057600080fd5b50600436106102115760003560e01c80637e90b61411610125578063ad973d74116100ad578063e3c1a5311161007c578063e3c1a531146105d4578063e7d0831d146105f0578063f2fde38b1461060c578063f46d039f14610628578063f80d1ff01461064457610211565b8063ad973d741461053a578063b17b330414610556578063bca4bd5014610586578063c6a63611146105b657610211565b806388cc58e4116100f457806388cc58e4146104965780638da5cb5b146104b45780638eb06ccf146104d25780638ec4f505146104ee5780638f0c86fa1461050a57610211565b80637e90b61414610426578063814f696e14610442578063844805101461045e5780638853ad751461047a57610211565b80635884965f116101a8578063650d993b11610177578063650d993b146103a85780636d6d00ed146103c657806370099ec8146103e4578063715018a6146104005780637250e2241461040a57610211565b80635884965f146103205780635bf279121461033e5780635da09b881461035a5780635eb4626f1461038a57610211565b806329ce1ec5116101e457806329ce1ec5146102b05780632a7ec29f146102cc5780634b37c73f146102e857806357c1f9e21461030457610211565b80630f04ba6714610216578063220fbbe9146102465780632885b9431461026257806328fd5e8314610280575b600080fd5b610230600480360381019061022b9190611bec565b610662565b60405161023d9190611c34565b60405180910390f35b610260600480360381019061025b9190611bec565b61067f565b005b61026a610749565b6040516102779190611d0d565b60405180910390f35b61029a60048036038101906102959190611bec565b61075a565b6040516102a79190611c34565b60405180910390f35b6102ca60048036038101906102c59190611bec565b610777565b005b6102e660048036038101906102e19190611bec565b610841565b005b61030260048036038101906102fd9190611bec565b6108fd565b005b61031e60048036038101906103199190611bec565b6109c7565b005b610328610a91565b6040516103359190611d0d565b60405180910390f35b61035860048036038101906103539190611bec565b610aa2565b005b610374600480360381019061036f9190611bec565b610b5e565b6040516103819190611c34565b60405180910390f35b610392610b7b565b60405161039f9190611d0d565b60405180910390f35b6103b0610b8c565b6040516103bd9190611d0d565b60405180910390f35b6103ce610b9d565b6040516103db9190611d48565b60405180910390f35b6103fe60048036038101906103f99190611bec565b610ba9565b005b610408610c73565b005b610424600480360381019061041f9190611bec565b610cfb565b005b610440600480360381019061043b9190611bec565b610dc5565b005b61045c60048036038101906104579190611bec565b610e81565b005b61047860048036038101906104739190611bec565b610f4b565b005b610494600480360381019061048f9190611bec565b611007565b005b61049e6110c3565b6040516104ab9190611d0d565b60405180910390f35b6104bc6110d4565b6040516104c99190611d72565b60405180910390f35b6104ec60048036038101906104e79190611bec565b6110fd565b005b61050860048036038101906105039190611bec565b6111c7565b005b610524600480360381019061051f9190611bec565b611291565b6040516105319190611c34565b60405180910390f35b610554600480360381019061054f9190611bec565b6112ae565b005b610570600480360381019061056b9190611bec565b611378565b60405161057d9190611c34565b60405180910390f35b6105a0600480360381019061059b9190611bec565b611395565b6040516105ad9190611c34565b60405180910390f35b6105be6113b2565b6040516105cb9190611d48565b60405180910390f35b6105ee60048036038101906105e99190611bec565b6113be565b005b61060a60048036038101906106059190611bec565b611488565b005b61062660048036038101906106219190611bec565b611544565b005b610642600480360381019061063d9190611bec565b61163c565b005b61064c611706565b6040516106599190611d0d565b60405180910390f35b60006106788260026117ca90919063ffffffff16565b9050919050565b610687611881565b73ffffffffffffffffffffffffffffffffffffffff166106a56110d4565b73ffffffffffffffffffffffffffffffffffffffff16146106fb576040517f08c379a00000000000000000000000000000000000000000000000000000000081526004016106f290611dea565b60405180910390fd5b61070f81600361171790919063ffffffff16565b7feaf4826d3cad06f851d4fdd9cdf878a0c6d82ce9a07f0c1955beac07c1e236928160405161073e9190611d72565b60405180910390a150565b60606107556001611889565b905090565b60006107708260066117ca90919063ffffffff16565b9050919050565b61077f611881565b73ffffffffffffffffffffffffffffffffffffffff1661079d6110d4565b73ffffffffffffffffffffffffffffffffffffffff16146107f3576040517f08c379a00000000000000000000000000000000000000000000000000000000081526004016107ea90611dea565b60405180910390fd5b61080781600261171790919063ffffffff16565b7f5a8fb443d09cf1426e80f80dd509757d71d4687674ab4adad906c5e2b6e1e62c816040516108369190611d72565b60405180910390a150565b8073ffffffffffffffffffffffffffffffffffffffff163373ffffffffffffffffffffffffffffffffffffffff16146108af576040517f08c379a00000000000000000000000000000000000000000000000000000000081526004016108a690611e56565b60405180910390fd5b6108c381600661191b90919063ffffffff16565b7f4709990004724f283154297c090b8420d74dcbf9ffcd6bc50294e7350c7cb4fc816040516108f29190611d72565b60405180910390a150565b610905611881565b73ffffffffffffffffffffffffffffffffffffffff166109236110d4565b73ffffffffffffffffffffffffffffffffffffffff1614610979576040517f08c379a000000000000000000000000000000000000000000000000000000000815260040161097090611dea565b60405180910390fd5b61098d81600261191b90919063ffffffff16565b7f3d4e7057f9f992c8d86344002642adf5d5cd33816b302134e7ef5e0f045a6e78816040516109bc9190611d72565b60405180910390a150565b6109cf611881565b73ffffffffffffffffffffffffffffffffffffffff166109ed6110d4565b73ffffffffffffffffffffffffffffffffffffffff1614610a43576040517f08c379a0000000000000000000000000000000000000000000000000000000008152600401610a3a90611dea565b60405180910390fd5b610a5781600461191b90919063ffffffff16565b7f43dd2f8ce4e5873e618ffabcae9856729ea5811dbc5e1c9be4365fcf7b7cf70381604051610a869190611d72565b60405180910390a150565b6060610a9d6004611889565b905090565b8073ffffffffffffffffffffffffffffffffffffffff163373ffffffffffffffffffffffffffffffffffffffff1614610b10576040517f08c379a0000000000000000000000000000000000000000000000000000000008152600401610b0790611e56565b60405180910390fd5b610b2481600461191b90919063ffffffff16565b7f43dd2f8ce4e5873e618ffabcae9856729ea5811dbc5e1c9be4365fcf7b7cf70381604051610b539190611d72565b60405180910390a150565b6000610b748260056117ca90919063ffffffff16565b9050919050565b6060610b876003611889565b905090565b6060610b986006611889565b905090565b60078060000154905081565b610bb1611881565b73ffffffffffffffffffffffffffffffffffffffff16610bcf6110d4565b73ffffffffffffffffffffffffffffffffffffffff1614610c25576040517f08c379a0000000000000000000000000000000000000000000000000000000008152600401610c1c90611dea565b60405180910390fd5b610c3981600561191b90919063ffffffff16565b7f200c3f073f217cf07dee57ee6e42c29e5fa6937f536b65c9d1e06be1f9c83dc181604051610c689190611d72565b60405180910390a150565b610c7b611881565b73ffffffffffffffffffffffffffffffffffffffff16610c996110d4565b73ffffffffffffffffffffffffffffffffffffffff1614610cef576040517f08c379a0000000000000000000000000000000000000000000000000000000008152600401610ce690611dea565b60405180910390fd5b610cf96000611ac5565b565b610d03611881565b73ffffffffffffffffffffffffffffffffffffffff16610d216110d4565b73ffffffffffffffffffffffffffffffffffffffff1614610d77576040517f08c379a0000000000000000000000000000000000000000000000000000000008152600401610d6e90611dea565b60405180910390fd5b610d8b81600461171790919063ffffffff16565b7f3afd547f7eb357741de51229846ae795cb06449e4b4032eb34a7cc0a751e25c181604051610dba9190611d72565b60405180910390a150565b8073ffffffffffffffffffffffffffffffffffffffff163373ffffffffffffffffffffffffffffffffffffffff1614610e33576040517f08c379a0000000000000000000000000000000000000000000000000000000008152600401610e2a90611e56565b60405180910390fd5b610e4781600361191b90919063ffffffff16565b7fe81ce8e22413eff3de3a7b6cd7aecf28ae2d00e44e5e48cd32ca949c7be314f781604051610e769190611d72565b60405180910390a150565b610e89611881565b73ffffffffffffffffffffffffffffffffffffffff16610ea76110d4565b73ffffffffffffffffffffffffffffffffffffffff1614610efd576040517f08c379a0000000000000000000000000000000000000000000000000000000008152600401610ef490611dea565b60405180910390fd5b610f1181600161171790919063ffffffff16565b7f364ee90eb63717b99192fdb951c7b1aa91a45bca11ac73ab40cfad762631fbce81604051610f409190611d72565b60405180910390a150565b8073ffffffffffffffffffffffffffffffffffffffff163373ffffffffffffffffffffffffffffffffffffffff1614610fb9576040517f08c379a0000000000000000000000000000000000000000000000000000000008152600401610fb090611e56565b60405180910390fd5b610fcd81600261191b90919063ffffffff16565b7f3d4e7057f9f992c8d86344002642adf5d5cd33816b302134e7ef5e0f045a6e7881604051610ffc9190611d72565b60405180910390a150565b8073ffffffffffffffffffffffffffffffffffffffff163373ffffffffffffffffffffffffffffffffffffffff1614611075576040517f08c379a000000000000000000000000000000000000000000000000000000000815260040161106c90611e56565b60405180910390fd5b61108981600161191b90919063ffffffff16565b7f9cfe362d8a536c3b63d391e311186b7f259fdd498eecf5d32626fe9b95058a7d816040516110b89190611d72565b60405180910390a150565b60606110cf6002611889565b905090565b60008060009054906101000a900473ffffffffffffffffffffffffffffffffffffffff16905090565b611105611881565b73ffffffffffffffffffffffffffffffffffffffff166111236110d4565b73ffffffffffffffffffffffffffffffffffffffff1614611179576040517f08c379a000000000000000000000000000000000000000000000000000000000815260040161117090611dea565b60405180910390fd5b61118d81600661191b90919063ffffffff16565b7f4709990004724f283154297c090b8420d74dcbf9ffcd6bc50294e7350c7cb4fc816040516111bc9190611d72565b60405180910390a150565b6111cf611881565b73ffffffffffffffffffffffffffffffffffffffff166111ed6110d4565b73ffffffffffffffffffffffffffffffffffffffff1614611243576040517f08c379a000000000000000000000000000000000000000000000000000000000815260040161123a90611dea565b60405180910390fd5b61125781600561171790919063ffffffff16565b7f0eea60f9e1851b51feed56c339be177ea715591923622a0effe46dbb8885efa6816040516112869190611d72565b60405180910390a150565b60006112a78260046117ca90919063ffffffff16565b9050919050565b6112b6611881565b73ffffffffffffffffffffffffffffffffffffffff166112d46110d4565b73ffffffffffffffffffffffffffffffffffffffff161461132a576040517f08c379a000000000000000000000000000000000000000000000000000000000815260040161132190611dea565b60405180910390fd5b61133e81600661171790919063ffffffff16565b7f23b2415a50efd127e694ba174e400d457ad65c58752e171b6d17f3f5daa26fdb8160405161136d9190611d72565b60405180910390a150565b600061138e8260036117ca90919063ffffffff16565b9050919050565b60006113ab8260016117ca90919063ffffffff16565b9050919050565b60088060000154905081565b6113c6611881565b73ffffffffffffffffffffffffffffffffffffffff166113e46110d4565b73ffffffffffffffffffffffffffffffffffffffff161461143a576040517f08c379a000000000000000000000000000000000000000000000000000000000815260040161143190611dea565b60405180910390fd5b61144e81600161191b90919063ffffffff16565b7f9cfe362d8a536c3b63d391e311186b7f259fdd498eecf5d32626fe9b95058a7d8160405161147d9190611d72565b60405180910390a150565b8073ffffffffffffffffffffffffffffffffffffffff163373ffffffffffffffffffffffffffffffffffffffff16146114f6576040517f08c379a00000000000000000000000000000000000000000000000000000000081526004016114ed90611e56565b60405180910390fd5b61150a81600561191b90919063ffffffff16565b7f200c3f073f217cf07dee57ee6e42c29e5fa6937f536b65c9d1e06be1f9c83dc1816040516115399190611d72565b60405180910390a150565b61154c611881565b73ffffffffffffffffffffffffffffffffffffffff1661156a6110d4565b73ffffffffffffffffffffffffffffffffffffffff16146115c0576040517f08c379a00000000000000000000000000000000000000000000000000000000081526004016115b790611dea565b60405180910390fd5b600073ffffffffffffffffffffffffffffffffffffffff168173ffffffffffffffffffffffffffffffffffffffff161415611630576040517f08c379a000000000000000000000000000000000000000000000000000000000815260040161162790611ee8565b60405180910390fd5b61163981611ac5565b50565b611644611881565b73ffffffffffffffffffffffffffffffffffffffff166116626110d4565b73ffffffffffffffffffffffffffffffffffffffff16146116b8576040517f08c379a00000000000000000000000000000000000000000000000000000000081526004016116af90611dea565b60405180910390fd5b6116cc81600361191b90919063ffffffff16565b7fe81ce8e22413eff3de3a7b6cd7aecf28ae2d00e44e5e48cd32ca949c7be314f7816040516116fb9190611d72565b60405180910390a150565b60606117126005611889565b905090565b61172182826117ca565b15611761576040517f08c379a000000000000000000000000000000000000000000000000000000000815260040161175890611f54565b60405180910390fd5b81600001819080600181540180825580915050600190039060005260206000200160009091909190916101000a81548173ffffffffffffffffffffffffffffffffffffffff021916908373ffffffffffffffffffffffffffffffffffffffff1602179055505050565b6000808360000180549050905060005b81811015611874578373ffffffffffffffffffffffffffffffffffffffff1685600001828154811061180f5761180e611f74565b5b9060005260206000200160009054906101000a900473ffffffffffffffffffffffffffffffffffffffff1673ffffffffffffffffffffffffffffffffffffffff1614156118615760019250505061187b565b808061186c90611fd2565b9150506117da565b5060009150505b92915050565b600033905090565b60608160000180548060200260200160405190810160405280929190818152602001828054801561190f57602002820191906000526020600020905b8160009054906101000a900473ffffffffffffffffffffffffffffffffffffffff1673ffffffffffffffffffffffffffffffffffffffff16815260200190600101908083116118c5575b50505050509050919050565b600082600001805490509050600080600090505b82811015611a755781156119e95784600001818154811061195357611952611f74565b5b9060005260206000200160009054906101000a900473ffffffffffffffffffffffffffffffffffffffff168560000160018361198f919061201b565b815481106119a05761199f611f74565b5b9060005260206000200160006101000a81548173ffffffffffffffffffffffffffffffffffffffff021916908373ffffffffffffffffffffffffffffffffffffffff1602179055505b8373ffffffffffffffffffffffffffffffffffffffff16856000018281548110611a1657611a15611f74565b5b9060005260206000200160009054906101000a900473ffffffffffffffffffffffffffffffffffffffff1673ffffffffffffffffffffffffffffffffffffffff161415611a6257600191505b8080611a6d90611fd2565b91505061192f565b5083600001805480611a8a57611a8961204f565b5b6001900381819060005260206000200160006101000a81549073ffffffffffffffffffffffffffffffffffffffff0219169055905550505050565b60008060009054906101000a900473ffffffffffffffffffffffffffffffffffffffff169050816000806101000a81548173ffffffffffffffffffffffffffffffffffffffff021916908373ffffffffffffffffffffffffffffffffffffffff1602179055508173ffffffffffffffffffffffffffffffffffffffff168173ffffffffffffffffffffffffffffffffffffffff167f8be0079c531659141344cd1fd0a4f28419497f9722a3daafe3b4186f6b6457e060405160405180910390a35050565b600080fd5b600073ffffffffffffffffffffffffffffffffffffffff82169050919050565b6000611bb982611b8e565b9050919050565b611bc981611bae565b8114611bd457600080fd5b50565b600081359050611be681611bc0565b92915050565b600060208284031215611c0257611c01611b89565b5b6000611c1084828501611bd7565b91505092915050565b60008115159050919050565b611c2e81611c19565b82525050565b6000602082019050611c496000830184611c25565b92915050565b600081519050919050565b600082825260208201905092915050565b6000819050602082019050919050565b611c8481611bae565b82525050565b6000611c968383611c7b565b60208301905092915050565b6000602082019050919050565b6000611cba82611c4f565b611cc48185611c5a565b9350611ccf83611c6b565b8060005b83811015611d00578151611ce78882611c8a565b9750611cf283611ca2565b925050600181019050611cd3565b5085935050505092915050565b60006020820190508181036000830152611d278184611caf565b905092915050565b6000819050919050565b611d4281611d2f565b82525050565b6000602082019050611d5d6000830184611d39565b92915050565b611d6c81611bae565b82525050565b6000602082019050611d876000830184611d63565b92915050565b600082825260208201905092915050565b7f4f776e61626c653a2063616c6c6572206973206e6f7420746865206f776e6572600082015250565b6000611dd4602083611d8d565b9150611ddf82611d9e565b602082019050919050565b60006020820190508181036000830152611e0381611dc7565b9050919050565b7f594f555f43414e5f4e4f545f524f4d4f56455f544849535f4144445245535300600082015250565b6000611e40601f83611d8d565b9150611e4b82611e0a565b602082019050919050565b60006020820190508181036000830152611e6f81611e33565b9050919050565b7f4f776e61626c653a206e6577206f776e657220697320746865207a65726f206160008201527f6464726573730000000000000000000000000000000000000000000000000000602082015250565b6000611ed2602683611d8d565b9150611edd82611e76565b604082019050919050565b60006020820190508181036000830152611f0181611ec5565b9050919050565b7f524f4c455f414c52454144595f45584953545300000000000000000000000000600082015250565b6000611f3e601383611d8d565b9150611f4982611f08565b602082019050919050565b60006020820190508181036000830152611f6d81611f31565b9050919050565b7f4e487b7100000000000000000000000000000000000000000000000000000000600052603260045260246000fd5b7f4e487b7100000000000000000000000000000000000000000000000000000000600052601160045260246000fd5b6000611fdd82611d2f565b91507fffffffffffffffffffffffffffffffffffffffffffffffffffffffffffffffff8214156120105761200f611fa3565b5b600182019050919050565b600061202682611d2f565b915061203183611d2f565b92508282101561204457612043611fa3565b5b828203905092915050565b7f4e487b7100000000000000000000000000000000000000000000000000000000600052603160045260246000fdfea264697066735822122020cb3aa1c15dee4961568d740ffddc9cd466a995efc6cccdeada584033d64a2b64736f6c63430008080033",
  "linkReferences": {},
  "deployedLinkReferences": {}
}